S01400004441324120706172743220432E73726563AC
S11300000C9434000C943E000C943E000C943E007E
S11300100C943E000C943E000C943E000C943E0064
S11300200C943E000C943E000C943E000C943E0054
S11300300C943E000C943E000C943E000C943E0044
S11300400C943E000C943E000C943E000C943E0034
S11300500C943E000C943E000C943E000C943E0024
S11300600C943E000C943E0011241FBECFEFD8E048
S1130070DEBFCDBF0E9440000C9444000C940000ED
S10F0080229A3A9886B1FECFF894FFCF84
S9030000FC
